:020000040800F2
:1000000080070020E50100080F1200080712000811
:100010000B120008C50E0008911700080000000030
:10002000000000000000000000000000B513000800
:10003000D510000800000000BF120008A11400083D
:10004000FF010008FF010008FF010008FF01000890
:10005000FF010008FF010008FF010008FF01000880
:10006000FF010008FF010008FF010008FF01000870
:10007000FF010008FF010008FF010008FF01000860
:10008000FF010008FF010008FF010008FF01000850
:10009000FF010008FF010008FF010008FF01000840
:1000A000FF010008FF010008FF010008FF01000830
:1000B000FF01000805150008FF010008FF01000806
:1000C000FF010008FF010008FF010008FF01000810
:1000D000FF010008FF010008FF010008FF01000800
:1000E000FF010008FF010008FF010008FF010008F0
:1000F000FF010008FF010008FF010008FF010008E0
:10010000FF010008FF010008FF010008FF010008CF
:10011000FF010008FF010008FF010008FF010008BF
:10012000FF010008FF010008FF010008FF010008AF
:1001300000F002F800F047F80AA090E8000C8244B2
:100140008344AAF10107DA4501D100F03CF8AFF28F
:10015000090EBAE80F0013F0010F18BFFB1A43F0A5
:1001600001031847F016000010170000103A24BFD2
:1001700078C878C1FAD8520724BF30C830C144BF0C
:1001800004680C607047000000230024002500264E
:10019000103A28BF78C1FBD8520728BF30C148BFEA
:1001A0000B607047642900F07D80002070471FB508
:1001B0009DE8030000F058FC00F03AF91FBD10B5AF
:1001C00000F09FF910BD00F002FA1146FFF7EFFFB3
:1001D00001F02CFB00F0F2FB03B4FFF7F0FF03BCCF
:1001E00000F0D4FD0948804709480047FEE7FEE7D4
:1001F000FEE7FEE7FEE7FEE7FEE7FEE7FEE7FEE7D7
:1002000004480549054A064B70470000A51400083C
:1002100031010008800100208007002080030020B9
:10022000800300200FB4044910B503AA029800F01F
:10023000D1F810BC5DF814FB740000202DE9F041EA
:100240000E460446002020622046E168884730B30D
:10025000252805D0D4E901219047206A401CF2E707
:10026000E168204600278847050018D0A5F1410025
:10027000192802D820354FF4006732462946204617
:100280002760FFF78FFF40B1012804D0F61D26F04C
:1002900007060836D8E7361DD6E72846DAE7206A8B
:1002A000BDE8F0812DE9F04106460024106875296B
:1002B000314616A510D0AFF30080002802DA404284
:1002C00013A507E031688A0701D512A502E04907A6
:1002D00004D511A5012401E0AFF3008000210A221A
:1002E00006F1240709E0B0FBF2FCB0FBF2F302FBDD
:1002F0001C00303078541846491C0028F3D123469E
:100300002A463046BDE8F04100F00BB8000000007E
:100310002D0000002B0000002000000070477047F7
:1003200070472DE9F0470D4699469246044600F184
:1003300024080168880604D5E06921F010012160D5
:1003400000E00120A84201DD471B00E00027A16971
:100350007A1902EB0900081AA0612078C00602D4BD
:100360002046AFF30080002608E0D4E901211AF806
:1003700006009047206A401C761C20624E45F4DB44
:100380002078C0060AD52046AFF3008006E0D4E905
:10039000012130209047206A401C2062381EA7F1BE
:1003A0000107F4DC07E0D4E9012118F805009047C3
:1003B000206A401C2062281EA5F10105F3DC2046BE
:1003C000AFF300802078000602D50220BDE8F08758
:1003D0000120FBE7074B70B50D467B4400F011F898
:1003E0000446284600F020F810B14FF0FF3070BDF1
:1003F000204670BD3514000001694A1C026108786E
:10040000704700B58FB0CDE9013100210591054954
:100410007944CDE9031011466846FFF70FFF0FB08E
:1004200000BD0000E5FFFFFF007B00F0800070478B
:1004300010B54248542100F0CEFA4148542100F052
:10044000CAFA4048542100F0C6FA3F493B483C4AAA
:100450003F4B08603D490A603A491960531C0365E7
:10046000481C1065012008653B48344A39A178448E
:1004700000F008FA20B9384878440A3800F0A4FAA5
:1004800037482F4A35A1784400F0FCF920B93448A8
:1004900078440A3800F098FA32482A4A2FA1784462
:1004A00000F0F0F920B92F4878440A3800F08CFAAF
:1004B00040232248DC000021224600F0BFF920B191
:1004C00025487844543800F07FFA1D4822464023DE
:1004D000002100F0B3F920B121487844543800F0ED
:1004E00073FA184822461023002100F0A7F90028CB
:1004F00006D01C487844BDE81040563800F064BA75
:1005000010BD104870B5006D20F001040B4800F0DC
:100510002FFA0B4800F02CFA0A4800F029FA09E0FB
:10052000206D20F00105204600F022FA204600F060
:1005300073F82C46002CF3D170BD00002000002081
:1005400074000020C80000201400002018000020C3
:100550001C00002072000000D6130000770000008D
:10056000C2130000AE1300000EB5CDE9000100F08B
:10057000EDFB029069460120ABBE0EBD08B5694691
:1005800000900220ABBE08BD1FB58DE8070069468C
:100590000520ABBE04B010BD1FB58DE80F00694645
:1005A0000620ABBEF6E708B5694600900920ABBE51
:1005B00008BD1CB5CDE9000169460A20ABBE1CBDD3
:1005C000704708B5694600900C20ABBE08BD754663
:1005D00000F028FAAE4605006946534620F00700B1
:1005E000854618B020B5FFF70BFEBDE820404FF060
:1005F00000064FF000074FF000084FF0000B21F00D
:100600000701AC46ACE8C009ACE8C009ACE8C009D9
:10061000ACE8C0098D46704770B50446051F00F070
:1006200007FA0068002C14BF446870BD002C18BF86
:10063000AC423CBF20466468F8D301680A18AA425D
:1006400018BF456003D12A68054611440160286837
:100650004119A1421CBF6C6070BD6168696021686E
:100660000844286070BD2DE9F04705460C46C8686F
:1006700020F4201040F48000C860800602D50846AF
:1006800000F023FBE06841F282014FF0FF390140A6
:10069000022903D0204600F0C1FAB5E000F4204161
:1006A000B1F5004F0FD1C00306D56168E06A8842FA
:1006B00000D80846606006E02069E062606060691A
:1006C000FFF77FFFA061A0680022EEB200280DDADC
:1006D000E1688B050AD4C043A06041F490302260E9
:1006E000E0606068411C61600670A5E0E0689046CB
:1006F000226040F40050E060206968BB6069FFF749
:1007000052FF012704F12405A0B1A08910F4407F15
:1007100008D0E06900F0D7F9206118B1E06840F432
:10072000006016E0E7612561E06820F4407040F465
:1007300080600EE0E06900F0C6F900282061F1D089
:10074000E06840F4006010F4407FE06002D140F4C3
:100750008070E06020696060E06825696FF0010AE0
:10076000C1051FD56168E06A884200D80846411B70
:1007700004D02246284600F05BFAF0BBE068010294
:1007800003D5E562C4E9015854E0691CE162616087
:10079000E16940F48030491EC4E9021030462E70F1
:1007A000BDE8F087010202D500F480320AE06068FB
:1007B000411C61600670E0680A2E40F48030E06001
:1007C00006D00022E16A6068814203D90B4602E04C
:1007D0000122F7E70346A7895B1B7F0503D4E7697E
:1007E0009F4200DDE2B1814200D80146E5620F1A66
:1007F000C4E90158002B09DD00E005E02246194656
:10080000284600F015FA08B14846C9E747B1A06983
:10081000E5626560C01BA061E06840F01000E06028
:10082000E068000208D56168A069E562491B0844D8
:100830006560A0615046B3E73046B1E770B5C46863
:10084000A50713D0650211D4B2F5807F09D0B2F5A7
:10085000007F06D0B2F5806F08D1012300F124019A
:1008600006E05D1E6FF07F46B54201D3012070BDEA
:100870000161C361416024F470611143C1600020D3
:1008800070BD00002DE9F0410C46074616461046A3
:1008900000F06EF82078611C61280AD0722802D01E
:1008A00077283CD102E00125002405E0022504243C
:1008B00002E0082448F2020511F8010B2B2806D0AB
:1008C000622809D011F8010C74280AD00BE045F019
:1008D000030544F00204EFE745F0040544F0010489
:1008E000EAE744F0100438462146FFF73DFE411C7C
:1008F00015D00021316171604FF40071F560F16134
:100900007061200704D530460222002100F00AF968
:10091000306D40F0010030653046BDE8F0810020C8
:10092000FBE72DE9F0410D460646104C206DC1074E
:1009300004D0410804D020F00104F7E722460EE07D
:10094000542000F0C0F807000ED0206D47F00101E0
:10095000084354212065384600F03DF83A462946C0
:100960003046BDE8F0418DE70020D6E720000020AA
:100970002DE9F04704464FF000094FF0FF37C568F6
:10098000D4E90486A80707D0204600F07BF930465A
:10099000FFF7F4FD002802DA3846BDE8F0872805A5
:1009A00002D54046FFF738FE4C21204600F013F8F0
:1009B000206D20F0010020654846EEE70446AFF3C5
:1009C00000802046FFF708FC10B500F0A5F9BDE84F
:1009D000104000F09BB94FF0000200B5134694465A
:1009E0009646203922BFA0E80C50A0E80C50B1F187
:1009F0002001BFF4F7AF090728BFA0E80C5048BF9B
:100A00000CC05DF804EB890028BF40F8042B08BF38
:100A1000704748BF20F8022B11F0804F18BF00F834
:100A2000012B7047004870471C01002070470000F0
:100A30000048704724010020704770477047704796
:100A400038B504460A4600206946AFF30080002806
:100A500008BF38BD02460099204600F0A4F90120E5
:100A600038BD012000F0F3B9F8B5AFF300800546BA
:100A700000200C46102000BF0646A819A0420DD940
:100A8000324669460020AFF30080070008BF00F03F
:100A9000DEF90098A04218BF0546C419FFF7C8FF49
:100AA00005600746F01D20F007004619284600F0B3
:100AB00073F9B44208BFF8BDA21B31463868BDE8DF
:100AC000F84000F070B970B50646FFF7B1FF056851
:100AD00006F10B0020F00704B4429CBF002070BD5B
:100AE0002B466A68BAB11068A04210D304F108011D
:100AF00088423CBF5068586007D351681019416064
:100B00001168091B016058601460101D70BD134608
:100B10005268002AE7D121462846FFF791FF0028B6
:100B2000DED170BD2DE9F041044616460D464769F9
:100B3000007B80072ED03846FFF735FD50BB3EB313
:100B4000012E02D0022E25D104E0204600F045F906
:100B500005441DE03846FFF734FDE168002841F008
:100B60001001E16005DA204600F058F80120BDE8E8
:100B7000F081C9030BD56268E16A914200D8114641
:100B8000A26911442269891A814200DD08460544A0
:100B9000002D01DA0220EAE7E16A6068E26881423A
:100BA00006D29103E06203D522F4003141F0100235
:100BB000A6690027AE4213DCE16A814201D90B46E7
:100BC00000E0034603EB060C2369ACEB030CAC45D9
:100BD00006DD814201D98C4600E084469C4505D162
:100BE000A760276042F02000A5620DE0AD1BE6691A
:100BF000AE1B8142A66000D90846C01A281A2060A0
:100C00005819606022F0200003490840E06000208D
:100C100084F84870ABE70000BFCFD7FFC16821F46C
:100C2000001141F08001C1600021816001607047C6
:100C30002DE9F047814614460E464FF0FF38324802
:100C4000D5685769054209D03846A169FFF7B1FC5C
:100C5000002811DB2C48C0430540E5602B46324696
:100C600049463846FFF790FCA16920F00042B21ACD
:100C700011440028A16103D02046FFF7CFFF404672
:100C8000BDE8F08770B504460569C06A61688842AE
:100C900000D80846E16821F42011E160C90312D5AB
:100CA000A84208D02246411B2846FFF7C1FF10B1D9
:100CB0004FF0FF3070BD0020E562C4E90150E068EC
:100CC00020F48030E060002070BD10B50446C0689C
:100CD00020F02000E060A16AA06988420DD0204683
:100CE000FFF7D0FFE06820F4405040F01000E060D3
:100CF000A06AA0612069E062606044F24001E0689F
:100D00008843E06010BD000010000200002801D000
:100D100000F03CB87047000010B5014602A000F09A
:100D20007DF8012010BD00005349475254524544FC
:100D30003A2052656469726563743A2063616E2774
:100D400074206F70656E3A200000000010B5431CDF
:100D500002E010F8011B71B18107FAD14FF00132A6
:100D600002C88C1A8C4314EAC211F9D0C01A0A06C0
:100D700003D0C01E10BDC01A10BD0A0401D0801ED1
:100D800010BD0902FCD0401E10BD00000149182012
:100D9000ABBEFEE72600020000210160C0E90110A1
:100DA000704710207047034640688C46002818BFE3
:100DB00088423CBF03464068F8D31868184488420C
:100DC00007D00CF1030020F00700001D411A521A51
:100DD0000146081D0A60FFF71FBC10B50146C26836
:100DE000900703D0900607D5886A0AE000F03EF825
:100DF00001210160881E10BD8B69486818440B6989
:100E0000C01A91F848301BB191F84910401A10BD32
:100E10001103FCD50028FADD401E10BD70B5054653
:100E20000C460A2000E06D1C00F018F835B1287857
:100E30000028F8D102E0641C00F010F814B120780A
:100E40000028F8D1BDE870400A2000F007B810B5BE
:100E500000F010F8BDE81040FFF758BF08B569462C
:100E60008DF800000320ABBE08BD000000487047AD
:100E70001C01002010B5012805D0002103A0FFF7B8
:100E8000CDFF012010BD09A1F8E7000053494752EA
:100E9000544D454D3A204F7574206F66206865614A
:100EA00070206D656D6F7279000000003A20486512
:100EB0006170206D656D6F727920636F72727570ED
:100EC0007465640000BFFEE710B5002400F02AF846
:100ED00004E0601CC4B2012000F07CFC0221104838
:100EE00000F084F9012801D1642CF2DB642C01DBD1
:100EF000012010BD002404E0601CC4B2012000F0F9
:100F000069FC0221064800F071F908B9642CF3DB92
:100F1000642C01DB0120ECE700240020E9E700005D
:100F20000008014008B50220ADF8000004208DF84B
:100F300003006946014800F0CEF808BD00080140F2
:100F400008B50220ADF8000003208DF80200102043
:100F50008DF803006946024800F0BDF808BD0000A6
:100F60000008014010B5FFF7EBFF0221064800F032
:100F700046F9142000F00EFC0221034800F041F96C
:100F80001E2000F027FC10BD0008014010B500BF76
:100F900002210C4800F02AF90128F9D000BF0221F3
:100FA000084800F023F90028F9D0282000F012FCAE
:100FB0000221044800F01AF9012800D110BD0020D8
:100FC000FCE700000008014070B50025002400BFC8
:100FD00006E06006040EFFF7D9FF0443681CC5B2A3
:100FE000082DF6DB204670BD7CB505460E46002474
:100FF000FFF7B8FFFFF768FF10BB00BF05E0FFF782
:10100000E3FF0DF80400601CC4B2052CF7DB9DF86B
:1010100000009DF8011008449DF8021008449DF856
:10102000031008449DF80410884207D19DF8000081
:1010300028709DF80200307000207CBD0120FCE784
:101040000120FAE71CB5694601A8FFF7CDFF68B992
:101050009DF8041009A0FFF7E5F89DF800100EA018
:10106000FFF7E0F812A0FFF7DDF802E011A0FFF7AC
:10107000D9F84FF47A7000F08DFB1CBDB5B1C7B044
:10108000BBB7BEB3CFE0B6D4CAAAB6C8A3BA25646C
:1010900025250D0A00000000B5B1C7B0BBB7BEB32F
:1010A000CEC2B6C8A3BA256420A1E60D0A0000008E
:1010B0000D0A0000444854313120CEC2CAAAB6C835
:1010C000B4ABB8D0C6F7BCECB2E2CAA7B0DCA3A1FF
:1010D0000D0A000070472DE9F04102460025002668
:1010E000002000230024002791F803C00CF00F0516
:1010F00091F803C00CF0100CBCF1000F03D091F874
:1011000002C04CEA050591F800C0BCF1000F31D0D7
:10111000146800202BE04FF0010C0CFA00F3B1F83A
:1011200000C00CEA03069E4220D183004FF00F0C52
:101130000CFA03F7BC4305FA03FC4CEA040491F8EB
:1011400003C0BCF1280F06D14FF0010C0CFA00FCD3
:10115000C2F814C00AE091F803C0BCF1480F05D1F1
:101160004FF0010C0CFA00FCC2F810C0401C08281B
:10117000D1D31460B1F800C0BCF1FF0F34DD546866
:1011800000202EE000F1080C4FF0010808FA0CF3E3
:10119000B1F800C00CEA03069E4221D183004FF053
:1011A0000F0C0CFA03F7BC4305FA03FC4CEA0404E9
:1011B00091F803C0BCF1280F05D100F1080C08FA22
:1011C0000CF8C2F8148091F803C0BCF1480F07D1A5
:1011D00000F1080C4FF0010808FA0CF8C2F8108072
:1011E000401C0828CED35460BDE8F08102460020A0
:1011F00093680B400BB1012000E000207047416173
:1012000070470161704700BFFEE700BFFEE770470F
:1012100070B5002100230F22C47804B3154C246854
:1012200004F4E064C4F5E064210AC1F10403CA4097
:10123000447804FA03F184781440214309010E4CE8
:101240000678A155047804F01F050124AC40057808
:101250006D11AD0005F1E025C5F8004109E0047805
:1012600004F01F050124AC40044D0678761145F8C2
:10127000264070BD0CED00E000E400E080E100E0FD
:1012800002490143024A1160704700000000FA055C
:101290000CED00E008B54FF4C060FFF7F1FF25202A
:1012A0008DF8000001208DF8010005208DF8020066
:1012B00001208DF803006846FFF7AAFF08BD7047BC
:1012C00029B1064A92690243044B9A6104E0034A39
:1012D00092698243014B9A617047000000100240FE
:1012E00030B500210022002400232D4D6D6805F04B
:1012F0000C0121B1042905D0082923D105E0294D8D
:10130000056022E0274D05601FE0254D6D6805F45E
:101310007012234D6D6805F48034022505EB92426E
:101320001CB9214D554305600BE01D4D6D6805F45A
:1013300000351DB11C4D5543056002E0194D554364
:10134000056002E0174D056000BF00BF144D6D68D9
:1013500005F0F0010909154D6B5C0568DD4045603D
:101360000F4D6D6805F4E061090A104D6B5C45682E
:10137000DD4085600A4D6D6805F46051C90A0B4D6A
:101380006B5C4568DD40C560054D6D6805F4404106
:10139000890B074D6B5CC568B5FBF3F5056130BD86
:1013A0000010024000127A0000093D0000000020F9
:1013B00010000020704710B500F002F810BD0000CA
:1013C0000CB50020019000903348006840F4803054
:1013D0003149086000BF3048006800F400300090D8
:1013E0000198401C0190009818B90198B0F5A06FC1
:1013F000F1D12948006800F4003010B101200090BC
:1014000001E0002000900098012843D123480068A3
:1014100040F01000214908600846006820F00300F1
:1014200008600846006840F0020008601A484068FA
:10143000194948600846406848600846406840F4DA
:10144000806048600846406820F47C104860084688
:10145000406840F4E81048600846006840F080703A
:10146000086000BF0C48006800F000700028F9D048
:101470000948406820F00300074948600846406872
:1014800040F00200486000BF0348406800F00C00D4
:101490000828F9D10CBD00000010024000200240D5
:1014A0007047000010B51348006840F00100114972
:1014B000086008464068104908400E4948600846E0
:1014C00000680E4908400B4908600846006820F48F
:1014D000802008600846406820F4FE0048604FF411
:1014E0001F008860FFF767FF4FF000600449086045
:1014F00010BD0000001002400000FFF8FFFFF6FEE4
:1015000008ED00E010B520210948FFF76FFE012823
:1015100004D120210748FFF772FE03E0202105488F
:10152000FFF76FFE0221044800F008F810BD00002C
:1015300000180140000C014000040040CA43028230
:10154000704701F40072B2F5007F00D100BFCA43BA
:101550000280704721B1828942F40052828104E006
:1015600082894DF6FF731A408281704700B585B0BD
:1015700001210420FFF7A4FE01218803FFF7A0FE4C
:1015800001210846FFF79CFE4FF40070ADF8000003
:1015900010208DF8030003208DF8020069461A48D8
:1015A000FFF799FD4FF48060ADF8000048208DF8FA
:1015B000030003208DF8020069461348FFF78BFDF6
:1015C0004FF4E13001900020ADF80800ADF80C00B8
:1015D000ADF80A000C20ADF80E000020ADF81000A8
:1015E00001A90A4800F060F8012240F2255107489D
:1015F00000F034F801210548FFF7ACFF4021034813
:10160000FFF79FFF05B000BD000801400038014012
:101610001FB54FF4E13000900020ADF80400ADF8A4
:101620000800ADF806000C20ADF80A000020ADF867
:101630000C006946084800F037F8012240F22551B5
:10164000054800F00BF801210348FFF783FF402114
:101650000148FFF776FF1FBD00380140F0B5034693
:10166000002400260025002040F66A17B94200D168
:1016700000BF1846C1F3421401F01F06012707FA04
:1016800006F5012C01D10C3004E0022C01D1103000
:1016900000E014301AB107682F43076002E00768C2
:1016A000AF430760F0BD00002DE9F04786B0054666
:1016B0000E460024A24600BFA1460027B08900B113
:1016C00000BF2F462C8A4CF6FF700440F08804437C
:1016D0002C82AC894EF6F3100440B088318908435F
:1016E000718908430443AC81AC8A4FF6FF40044043
:1016F000B0890443AC8201A8FFF7F2FD1F4887427E
:1017000002D1DDF810A001E0DDF80CA0A88900F4FA
:10171000004040B10AEBCA0000EB0A1031684900F2
:10172000B0FBF1F807E00AEBCA0000EB0A103168E1
:101730008900B0FBF1F86420B8FBF0F00401200947
:10174000642101FB1089A88900F4004040B13220D7
:1017500000EBC900B0FBF1F000F00700044308E023
:10176000322000EB09106421B0FBF1F000F00F0013
:1017700004432C8106B0BDE8F0870000003801402A
:1017800010B5FFF7F3FEFFF743FFFFF783FD10BD32
:1017900000BFFEE7014600224FF0E0239A614FF4BC
:1017A00061725A6101221A6100BF4FF0E022126992
:1017B00090B200F001023AB108B9012200E0002223
:1017C00002F48032002AF0D100224FF0E0239A6127
:1017D0001A617047014600224FF0E0239A6101EB45
:1017E000C1025A6101221A6100BF4FF0E022106964
:1017F00000F001023AB108B9012200E0002202F42F
:101800008032002AF1D100224FF0E0239A611A6160
:1018100070478A68002A01DCFEF725BF521E8A60E5
:101820004A68C0B2531C4B6010707047FFF7A8FFA6
:1018300001210420FFF744FD05E0FFF703FC4FF40E
:101840007A70FFF7A7FFF8E73A7474003A747400EF
:101850003A74740074180008000000202000000092
:101860006C010008941800082000002060070000A8
:1018700088010008000000000102030401020304C3
:101880000607080902040608000000000000000026
:041890000000000054
:0400000508000131BD
:00000001FF
